{
  "_format": "hh-sol-artifact-1",
  "contractName": "Drive",
  "sourceName": "contracts/Drive.sol",
  "abi": [
    {
      "inputs": [
        {
          "internalType": "string",
          "name": "userid",
          "type": "string"
        }
      ],
      "name": "addStorage",
      "outputs": [
        {
          "internalType": "bool",
          "name": "",
          "type": "bool"
        }
      ],
      "stateMutability": "nonpayable",
      "type": "function"
    },
    {
      "inputs": [
        {
          "internalType": "uint256",
          "name": "index",
          "type": "uint256"
        }
      ],
      "name": "getFile",
      "outputs": [
        {
          "internalType": "string",
          "name": "cid",
          "type": "string"
        },
        {
          "components": [
            {
              "internalType": "string",
              "name": "file_name",
              "type": "string"
            },
            {
              "internalType": "string",
              "name": "upload_date",
              "type": "string"
            },
            {
              "internalType": "string",
              "name": "file_size",
              "type": "string"
            },
            {
              "internalType": "string",
              "name": "file_type",
              "type": "string"
            }
          ],
          "internalType": "struct Drive.FileMetadata",
          "name": "metadata",
          "type": "tuple"
        }
      ],
      "stateMutability": "view",
      "type": "function"
    },
    {
      "inputs": [],
      "name": "getNumberOfFiles",
      "outputs": [
        {
          "internalType": "uint256",
          "name": "",
          "type": "uint256"
        }
      ],
      "stateMutability": "view",
      "type": "function"
    },
    {
      "inputs": [
        {
          "internalType": "string",
          "name": "cid",
          "type": "string"
        },
        {
          "internalType": "string",
          "name": "name",
          "type": "string"
        },
        {
          "internalType": "string",
          "name": "date",
          "type": "string"
        },
        {
          "internalType": "string",
          "name": "size",
          "type": "string"
        },
        {
          "internalType": "string",
          "name": "file_type",
          "type": "string"
        }
      ],
      "name": "uploadFile",
      "outputs": [
        {
          "internalType": "bool",
          "name": "",
          "type": "bool"
        }
      ],
      "stateMutability": "nonpayable",
      "type": "function"
    }
  ],
  "bytecode": "0x608060405234801561001057600080fd5b50610fce806100206000396000f3fe608060405234801561001057600080fd5b506004361061004c5760003560e01c80632bfda3131461005157806389273f1514610082578063ef8b3839146100b2578063fbc65775146100e2575b600080fd5b61006b60048036038101906100669190610784565b610100565b604051610079929190610903565b60405180910390f35b61009c60048036038101906100979190610a6f565b6104e3565b6040516100a99190610ad3565b60405180910390f35b6100cc60048036038101906100c79190610aee565b610598565b6040516100d99190610ad3565b60405180910390f35b6100ea6106c9565b6040516100f79190610c04565b60405180910390f35b606061010a610712565b6000803373ffffffffffffffffffffffffffffffffffffffff1673ffffffffffffffffffffffffffffffffffffffff16815260200190815260200160002080549050831061018d576040517f08c379a000000000000000000000000000000000000000000000000000000000815260040161018490610c6b565b60405180910390fd5b60008060003373ffffffffffffffffffffffffffffffffffffffff1673ffffffffffffffffffffffffffffffffffffffff16815260200190815260200160002084815481106101df576101de610c8b565b5b90600052602060002090600502019050806000018160010181805461020390610ce9565b80601f016020809104026020016040519081016040528092919081815260200182805461022f90610ce9565b801561027c5780601f106102515761010080835404028352916020019161027c565b820191906000526020600020905b81548152906001019060200180831161025f57829003601f168201915b505050505091508060405180608001604052908160008201805461029f90610ce9565b80601f01602080910402602001604051908101604052809291908181526020018280546102cb90610ce9565b80156103185780601f106102ed57610100808354040283529160200191610318565b820191906000526020600020905b8154815290600101906020018083116102fb57829003601f168201915b5050505050815260200160018201805461033190610ce9565b80601f016020809104026020016040519081016040528092919081815260200182805461035d90610ce9565b80156103aa5780601f1061037f576101008083540402835291602001916103aa565b820191906000526020600020905b81548152906001019060200180831161038d57829003601f168201915b505050505081526020016002820180546103c390610ce9565b80601f01602080910402602001604051908101604052809291908181526020018280546103ef90610ce9565b801561043c5780601f106104115761010080835404028352916020019161043c565b820191906000526020600020905b81548152906001019060200180831161041f57829003601f168201915b5050505050815260200160038201805461045590610ce9565b80601f016020809104026020016040519081016040528092919081815260200182805461048190610ce9565b80156104ce5780601f106104a3576101008083540402835291602001916104ce565b820191906000526020600020905b8154815290600101906020018083116104b157829003601f168201915b50505050508152505090509250925050915091565b600080600160003373ffffffffffffffffffffffffffffffffffffffff1673ffffffffffffffffffffffffffffffffffffffff168152602001908152602001600020805461053090610ce9565b905011156105415760009050610593565b81600160003373ffffffffffffffffffffffffffffffffffffffff1673ffffffffffffffffffffffffffffffffffffffff168152602001908152602001600020908161058d9190610ec6565b50600190505b919050565b6000806040518060800160405280878152602001868152602001858152602001848152509050600060405180604001604052808981526020018381525090506000803373ffffffffffffffffffffffffffffffffffffffff1673ffffffffffffffffffffffffffffffffffffffff16815260200190815260200160002081908060018154018082558091505060019003906000526020600020906005020160009091909190915060008201518160000190816106549190610ec6565b5060208201518160010160008201518160000190816106739190610ec6565b5060208201518160010190816106899190610ec6565b50604082015181600201908161069f9190610ec6565b5060608201518160030190816106b59190610ec6565b505050505060019250505095945050505050565b60008060003373ffffffffffffffffffffffffffffffffffffffff1673ffffffffffffffffffffffffffffffffffffffff16815260200190815260200160002080549050905090565b6040518060800160405280606081526020016060815260200160608152602001606081525090565b6000604051905090565b600080fd5b600080fd5b6000819050919050565b6107618161074e565b811461076c57600080fd5b50565b60008135905061077e81610758565b92915050565b60006020828403121561079a57610799610744565b5b60006107a88482850161076f565b91505092915050565b600081519050919050565b600082825260208201905092915050565b60005b838110156107eb5780820151818401526020810190506107d0565b60008484015250505050565b6000601f19601f8301169050919050565b6000610813826107b1565b61081d81856107bc565b935061082d8185602086016107cd565b610836816107f7565b840191505092915050565b600082825260208201905092915050565b600061085d826107b1565b6108678185610841565b93506108778185602086016107cd565b610880816107f7565b840191505092915050565b600060808301600083015184820360008601526108a88282610852565b915050602083015184820360208601526108c28282610852565b915050604083015184820360408601526108dc8282610852565b915050606083015184820360608601526108f68282610852565b9150508091505092915050565b6000604082019050818103600083015261091d8185610808565b90508181036020830152610931818461088b565b90509392505050565b600080fd5b600080fd5b7f4e487b7100000000000000000000000000000000000000000000000000000000600052604160045260246000fd5b61097c826107f7565b810181811067ffffffffffffffff8211171561099b5761099a610944565b5b80604052505050565b60006109ae61073a565b90506109ba8282610973565b919050565b600067ffffffffffffffff8211156109da576109d9610944565b5b6109e3826107f7565b9050602081019050919050565b82818337600083830152505050565b6000610a12610a0d846109bf565b6109a4565b905082815260208101848484011115610a2e57610a2d61093f565b5b610a398482856109f0565b509392505050565b600082601f830112610a5657610a5561093a565b5b8135610a668482602086016109ff565b91505092915050565b600060208284031215610a8557610a84610744565b5b600082013567ffffffffffffffff811115610aa357610aa2610749565b5b610aaf84828501610a41565b91505092915050565b60008115159050919050565b610acd81610ab8565b82525050565b6000602082019050610ae86000830184610ac4565b92915050565b600080600080600060a08688031215610b0a57610b09610744565b5b600086013567ffffffffffffffff811115610b2857610b27610749565b5b610b3488828901610a41565b955050602086013567ffffffffffffffff811115610b5557610b54610749565b5b610b6188828901610a41565b945050604086013567ffffffffffffffff811115610b8257610b81610749565b5b610b8e88828901610a41565b935050606086013567ffffffffffffffff811115610baf57610bae610749565b5b610bbb88828901610a41565b925050608086013567ffffffffffffffff811115610bdc57610bdb610749565b5b610be888828901610a41565b9150509295509295909350565b610bfe8161074e565b82525050565b6000602082019050610c196000830184610bf5565b92915050565b7f46696c65206e6f7420666f756e64000000000000000000000000000000000000600082015250565b6000610c55600e836107bc565b9150610c6082610c1f565b602082019050919050565b60006020820190508181036000830152610c8481610c48565b9050919050565b7f4e487b7100000000000000000000000000000000000000000000000000000000600052603260045260246000fd5b7f4e487b7100000000000000000000000000000000000000000000000000000000600052602260045260246000fd5b60006002820490506001821680610d0157607f821691505b602082108103610d1457610d13610cba565b5b50919050565b60008190508160005260206000209050919050565b60006020601f8301049050919050565b600082821b905092915050565b600060088302610d7c7fffffffffffffffffffffffffffffffffffffffffffffffffffffffffffffffff82610d3f565b610d868683610d3f565b95508019841693508086168417925050509392505050565b6000819050919050565b6000610dc3610dbe610db98461074e565b610d9e565b61074e565b9050919050565b6000819050919050565b610ddd83610da8565b610df1610de982610dca565b848454610d4c565b825550505050565b600090565b610e06610df9565b610e11818484610dd4565b505050565b5b81811015610e3557610e2a600082610dfe565b600181019050610e17565b5050565b601f821115610e7a57610e4b81610d1a565b610e5484610d2f565b81016020851015610e63578190505b610e77610e6f85610d2f565b830182610e16565b50505b505050565b600082821c905092915050565b6000610e9d60001984600802610e7f565b1980831691505092915050565b6000610eb68383610e8c565b9150826002028217905092915050565b610ecf826107b1565b67ffffffffffffffff811115610ee857610ee7610944565b5b610ef28254610ce9565b610efd828285610e39565b600060209050601f831160018114610f305760008415610f1e578287015190505b610f288582610eaa565b865550610f90565b601f198416610f3e86610d1a565b60005b82811015610f6657848901518255600182019150602085019450602081019050610f41565b86831015610f835784890151610f7f601f891682610e8c565b8355505b6001600288020188555050505b50505050505056fea26469706673582212203a5d9d18e98bf77635f1245576e992a6db95ac121e5303bc7128999b8d778a9664736f6c63430008130033",
  "linkReferences": {},
  "deployedLinkReferences": {}
}