{
  "_format": "hh-sol-artifact-1",
  "contractName": "Drive",
  "sourceName": "contracts/Drive.sol",
  "abi": [
    {
      "inputs": [
        {
          "internalType": "uint256",
          "name": "index",
          "type": "uint256"
        }
      ],
      "name": "getFile",
      "outputs": [
        {
          "internalType": "string[]",
          "name": "cid",
          "type": "string[]"
        },
        {
          "components": [
            {
              "internalType": "string",
              "name": "file_name",
              "type": "string"
            },
            {
              "internalType": "string",
              "name": "upload_date",
              "type": "string"
            },
            {
              "internalType": "string",
              "name": "file_size",
              "type": "string"
            },
            {
              "internalType": "string",
              "name": "file_type",
              "type": "string"
            }
          ],
          "internalType": "struct Drive.FileMetadata",
          "name": "metadata",
          "type": "tuple"
        }
      ],
      "stateMutability": "view",
      "type": "function"
    },
    {
      "inputs": [],
      "name": "getNumberOfFiles",
      "outputs": [
        {
          "internalType": "uint256",
          "name": "",
          "type": "uint256"
        }
      ],
      "stateMutability": "view",
      "type": "function"
    },
    {
      "inputs": [
        {
          "internalType": "string[]",
          "name": "cid",
          "type": "string[]"
        },
        {
          "internalType": "string",
          "name": "name",
          "type": "string"
        },
        {
          "internalType": "string",
          "name": "date",
          "type": "string"
        },
        {
          "internalType": "string",
          "name": "size",
          "type": "string"
        },
        {
          "internalType": "string",
          "name": "file_type",
          "type": "string"
        }
      ],
      "name": "uploadFile",
      "outputs": [
        {
          "internalType": "bool",
          "name": "",
          "type": "bool"
        }
      ],
      "stateMutability": "nonpayable",
      "type": "function"
    }
  ],
  "bytecode": "0x608060405234801561001057600080fd5b5061112c806100206000396000f3fe608060405234801561001057600080fd5b50600436106100415760003560e01c80632bfda31314610046578063e9a1c1fb14610077578063fbc65775146100a7575b600080fd5b610060600480360381019061005b91906107bc565b6100c5565b60405161006e9291906109b3565b60405180910390f35b610091600480360381019061008c9190610c05565b6104ef565b60405161009e9190610d27565b60405180910390f35b6100af610627565b6040516100bc9190610d51565b60405180910390f35b60606100cf610670565b6000803373ffffffffffffffffffffffffffffffffffffffff1673ffffffffffffffffffffffffffffffffffffffff168152602001908152602001600020805490508310610152576040517f08c379a000000000000000000000000000000000000000000000000000000000815260040161014990610dc9565b60405180910390fd5b60008060003373ffffffffffffffffffffffffffffffffffffffff1673ffffffffffffffffffffffffffffffffffffffff16815260200190815260200160002084815481106101a4576101a3610de9565b5b90600052602060002090600502019050806000018160010181805480602002602001604051908101604052809291908181526020016000905b828210156102895783829060005260206000200180546101fc90610e47565b80601f016020809104026020016040519081016040528092919081815260200182805461022890610e47565b80156102755780601f1061024a57610100808354040283529160200191610275565b820191906000526020600020905b81548152906001019060200180831161025857829003601f168201915b5050505050815260200190600101906101dd565b505050509150806040518060800160405290816000820180546102ab90610e47565b80601f01602080910402602001604051908101604052809291908181526020018280546102d790610e47565b80156103245780601f106102f957610100808354040283529160200191610324565b820191906000526020600020905b81548152906001019060200180831161030757829003601f168201915b5050505050815260200160018201805461033d90610e47565b80601f016020809104026020016040519081016040528092919081815260200182805461036990610e47565b80156103b65780601f1061038b576101008083540402835291602001916103b6565b820191906000526020600020905b81548152906001019060200180831161039957829003601f168201915b505050505081526020016002820180546103cf90610e47565b80601f01602080910402602001604051908101604052809291908181526020018280546103fb90610e47565b80156104485780601f1061041d57610100808354040283529160200191610448565b820191906000526020600020905b81548152906001019060200180831161042b57829003601f168201915b5050505050815260200160038201805461046190610e47565b80601f016020809104026020016040519081016040528092919081815260200182805461048d90610e47565b80156104da5780601f106104af576101008083540402835291602001916104da565b820191906000526020600020905b8154815290600101906020018083116104bd57829003601f168201915b50505050508152505090509250925050915091565b6000806040518060800160405280878152602001868152602001858152602001848152509050600060405180604001604052808981526020018381525090506000803373ffffffffffffffffffffffffffffffffffffffff1673ffffffffffffffffffffffffffffffffffffffff16815260200190815260200160002081908060018154018082558091505060019003906000526020600020906005020160009091909190915060008201518160000190805190602001906105b2929190610698565b5060208201518160010160008201518160000190816105d19190611024565b5060208201518160010190816105e79190611024565b5060408201518160020190816105fd9190611024565b5060608201518160030190816106139190611024565b505050505060019250505095945050505050565b60008060003373ffffffffffffffffffffffffffffffffffffffff1673ffffffffffffffffffffffffffffffffffffffff16815260200190815260200160002080549050905090565b6040518060800160405280606081526020016060815260200160608152602001606081525090565b8280548282559060005260206000209081019282156106e0579160200282015b828111156106df5782518290816106cf9190611024565b50916020019190600101906106b8565b5b5090506106ed91906106f1565b5090565b5b8082111561071157600081816107089190610715565b506001016106f2565b5090565b50805461072190610e47565b6000825580601f106107335750610752565b601f0160209004906000526020600020908101906107519190610755565b5b50565b5b8082111561076e576000816000905550600101610756565b5090565b6000604051905090565b600080fd5b600080fd5b6000819050919050565b61079981610786565b81146107a457600080fd5b50565b6000813590506107b681610790565b92915050565b6000602082840312156107d2576107d161077c565b5b60006107e0848285016107a7565b91505092915050565b600081519050919050565b600082825260208201905092915050565b6000819050602082019050919050565b600081519050919050565b600082825260208201905092915050565b60005b8381101561084f578082015181840152602081019050610834565b60008484015250505050565b6000601f19601f8301169050919050565b600061087782610815565b6108818185610820565b9350610891818560208601610831565b61089a8161085b565b840191505092915050565b60006108b1838361086c565b905092915050565b6000602082019050919050565b60006108d1826107e9565b6108db81856107f4565b9350836020820285016108ed85610805565b8060005b85811015610929578484038952815161090a85826108a5565b9450610915836108b9565b925060208a019950506001810190506108f1565b50829750879550505050505092915050565b60006080830160008301518482036000860152610958828261086c565b91505060208301518482036020860152610972828261086c565b9150506040830151848203604086015261098c828261086c565b915050606083015184820360608601526109a6828261086c565b9150508091505092915050565b600060408201905081810360008301526109cd81856108c6565b905081810360208301526109e1818461093b565b90509392505050565b600080fd5b7f4e487b7100000000000000000000000000000000000000000000000000000000600052604160045260246000fd5b610a278261085b565b810181811067ffffffffffffffff82111715610a4657610a456109ef565b5b80604052505050565b6000610a59610772565b9050610a658282610a1e565b919050565b600067ffffffffffffffff821115610a8557610a846109ef565b5b602082029050602081019050919050565b600080fd5b600080fd5b600067ffffffffffffffff821115610abb57610aba6109ef565b5b610ac48261085b565b9050602081019050919050565b82818337600083830152505050565b6000610af3610aee84610aa0565b610a4f565b905082815260208101848484011115610b0f57610b0e610a9b565b5b610b1a848285610ad1565b509392505050565b600082601f830112610b3757610b366109ea565b5b8135610b47848260208601610ae0565b91505092915050565b6000610b63610b5e84610a6a565b610a4f565b90508083825260208201905060208402830185811115610b8657610b85610a96565b5b835b81811015610bcd57803567ffffffffffffffff811115610bab57610baa6109ea565b5b808601610bb88982610b22565b85526020850194505050602081019050610b88565b5050509392505050565b600082601f830112610bec57610beb6109ea565b5b8135610bfc848260208601610b50565b91505092915050565b600080600080600060a08688031215610c2157610c2061077c565b5b600086013567ffffffffffffffff811115610c3f57610c3e610781565b5b610c4b88828901610bd7565b955050602086013567ffffffffffffffff811115610c6c57610c6b610781565b5b610c7888828901610b22565b945050604086013567ffffffffffffffff811115610c9957610c98610781565b5b610ca588828901610b22565b935050606086013567ffffffffffffffff811115610cc657610cc5610781565b5b610cd288828901610b22565b925050608086013567ffffffffffffffff811115610cf357610cf2610781565b5b610cff88828901610b22565b9150509295509295909350565b60008115159050919050565b610d2181610d0c565b82525050565b6000602082019050610d3c6000830184610d18565b92915050565b610d4b81610786565b82525050565b6000602082019050610d666000830184610d42565b92915050565b600082825260208201905092915050565b7f46696c65206e6f7420666f756e64000000000000000000000000000000000000600082015250565b6000610db3600e83610d6c565b9150610dbe82610d7d565b602082019050919050565b60006020820190508181036000830152610de281610da6565b9050919050565b7f4e487b7100000000000000000000000000000000000000000000000000000000600052603260045260246000fd5b7f4e487b7100000000000000000000000000000000000000000000000000000000600052602260045260246000fd5b60006002820490506001821680610e5f57607f821691505b602082108103610e7257610e71610e18565b5b50919050565b60008190508160005260206000209050919050565b60006020601f8301049050919050565b600082821b905092915050565b600060088302610eda7fffffffffffffffffffffffffffffffffffffffffffffffffffffffffffffffff82610e9d565b610ee48683610e9d565b95508019841693508086168417925050509392505050565b6000819050919050565b6000610f21610f1c610f1784610786565b610efc565b610786565b9050919050565b6000819050919050565b610f3b83610f06565b610f4f610f4782610f28565b848454610eaa565b825550505050565b600090565b610f64610f57565b610f6f818484610f32565b505050565b5b81811015610f9357610f88600082610f5c565b600181019050610f75565b5050565b601f821115610fd857610fa981610e78565b610fb284610e8d565b81016020851015610fc1578190505b610fd5610fcd85610e8d565b830182610f74565b50505b505050565b600082821c905092915050565b6000610ffb60001984600802610fdd565b1980831691505092915050565b60006110148383610fea565b9150826002028217905092915050565b61102d82610815565b67ffffffffffffffff811115611046576110456109ef565b5b6110508254610e47565b61105b828285610f97565b600060209050601f83116001811461108e576000841561107c578287015190505b6110868582611008565b8655506110ee565b601f19841661109c86610e78565b60005b828110156110c45784890151825560018201915060208501945060208101905061109f565b868310156110e157848901516110dd601f891682610fea565b8355505b6001600288020188555050505b50505050505056fea2646970667358221220e71e01b9e33968d99fd306da44482f7bd9e884ae839cba4bda5f42a916db550b64736f6c63430008130033",
  "linkReferences": {},
  "deployedLinkReferences": {}
}