{
  "_format": "hh-sol-artifact-1",
  "contractName": "Drive",
  "sourceName": "contracts/Drive.sol",
  "abi": [
    {
      "inputs": [
        {
          "internalType": "uint256",
          "name": "index",
          "type": "uint256"
        }
      ],
      "name": "getFile",
      "outputs": [
        {
          "internalType": "string",
          "name": "cid",
          "type": "string"
        },
        {
          "components": [
            {
              "internalType": "string",
              "name": "file_name",
              "type": "string"
            },
            {
              "internalType": "string",
              "name": "upload_date",
              "type": "string"
            },
            {
              "internalType": "string",
              "name": "file_size",
              "type": "string"
            },
            {
              "internalType": "string",
              "name": "file_type",
              "type": "string"
            }
          ],
          "internalType": "struct Drive.FileMetadata",
          "name": "metadata",
          "type": "tuple"
        }
      ],
      "stateMutability": "view",
      "type": "function"
    },
    {
      "inputs": [],
      "name": "getNumberOfFiles",
      "outputs": [
        {
          "internalType": "uint256",
          "name": "",
          "type": "uint256"
        }
      ],
      "stateMutability": "view",
      "type": "function"
    },
    {
      "inputs": [
        {
          "internalType": "string",
          "name": "cid",
          "type": "string"
        },
        {
          "internalType": "string",
          "name": "name",
          "type": "string"
        },
        {
          "internalType": "string",
          "name": "date",
          "type": "string"
        },
        {
          "internalType": "string",
          "name": "size",
          "type": "string"
        },
        {
          "internalType": "string",
          "name": "file_type",
          "type": "string"
        }
      ],
      "name": "uploadFile",
      "outputs": [
        {
          "internalType": "bool",
          "name": "",
          "type": "bool"
        }
      ],
      "stateMutability": "nonpayable",
      "type": "function"
    }
  ],
  "bytecode": "0x608060405234801561001057600080fd5b50610e95806100206000396000f3fe608060405234801561001057600080fd5b50600436106100415760003560e01c80632bfda31314610046578063ef8b383914610077578063fbc65775146100a7575b600080fd5b610060600480360381019061005b9190610694565b6100c5565b60405161006e929190610813565b60405180910390f35b610091600480360381019061008c919061097f565b6104a8565b60405161009e9190610aa1565b60405180910390f35b6100af6105d9565b6040516100bc9190610acb565b60405180910390f35b60606100cf610622565b6000803373ffffffffffffffffffffffffffffffffffffffff1673ffffffffffffffffffffffffffffffffffffffff168152602001908152602001600020805490508310610152576040517f08c379a000000000000000000000000000000000000000000000000000000000815260040161014990610b32565b60405180910390fd5b60008060003373ffffffffffffffffffffffffffffffffffffffff1673ffffffffffffffffffffffffffffffffffffffff16815260200190815260200160002084815481106101a4576101a3610b52565b5b9060005260206000209060050201905080600001816001018180546101c890610bb0565b80601f01602080910402602001604051908101604052809291908181526020018280546101f490610bb0565b80156102415780601f1061021657610100808354040283529160200191610241565b820191906000526020600020905b81548152906001019060200180831161022457829003601f168201915b505050505091508060405180608001604052908160008201805461026490610bb0565b80601f016020809104026020016040519081016040528092919081815260200182805461029090610bb0565b80156102dd5780601f106102b2576101008083540402835291602001916102dd565b820191906000526020600020905b8154815290600101906020018083116102c057829003601f168201915b505050505081526020016001820180546102f690610bb0565b80601f016020809104026020016040519081016040528092919081815260200182805461032290610bb0565b801561036f5780601f106103445761010080835404028352916020019161036f565b820191906000526020600020905b81548152906001019060200180831161035257829003601f168201915b5050505050815260200160028201805461038890610bb0565b80601f01602080910402602001604051908101604052809291908181526020018280546103b490610bb0565b80156104015780601f106103d657610100808354040283529160200191610401565b820191906000526020600020905b8154815290600101906020018083116103e457829003601f168201915b5050505050815260200160038201805461041a90610bb0565b80601f016020809104026020016040519081016040528092919081815260200182805461044690610bb0565b80156104935780601f1061046857610100808354040283529160200191610493565b820191906000526020600020905b81548152906001019060200180831161047657829003601f168201915b50505050508152505090509250925050915091565b6000806040518060800160405280878152602001868152602001858152602001848152509050600060405180604001604052808981526020018381525090506000803373ffffffffffffffffffffffffffffffffffffffff1673ffffffffffffffffffffffffffffffffffffffff16815260200190815260200160002081908060018154018082558091505060019003906000526020600020906005020160009091909190915060008201518160000190816105649190610d8d565b5060208201518160010160008201518160000190816105839190610d8d565b5060208201518160010190816105999190610d8d565b5060408201518160020190816105af9190610d8d565b5060608201518160030190816105c59190610d8d565b505050505060019250505095945050505050565b60008060003373ffffffffffffffffffffffffffffffffffffffff1673ffffffffffffffffffffffffffffffffffffffff16815260200190815260200160002080549050905090565b6040518060800160405280606081526020016060815260200160608152602001606081525090565b6000604051905090565b600080fd5b600080fd5b6000819050919050565b6106718161065e565b811461067c57600080fd5b50565b60008135905061068e81610668565b92915050565b6000602082840312156106aa576106a9610654565b5b60006106b88482850161067f565b91505092915050565b600081519050919050565b600082825260208201905092915050565b60005b838110156106fb5780820151818401526020810190506106e0565b60008484015250505050565b6000601f19601f8301169050919050565b6000610723826106c1565b61072d81856106cc565b935061073d8185602086016106dd565b61074681610707565b840191505092915050565b600082825260208201905092915050565b600061076d826106c1565b6107778185610751565b93506107878185602086016106dd565b61079081610707565b840191505092915050565b600060808301600083015184820360008601526107b88282610762565b915050602083015184820360208601526107d28282610762565b915050604083015184820360408601526107ec8282610762565b915050606083015184820360608601526108068282610762565b9150508091505092915050565b6000604082019050818103600083015261082d8185610718565b90508181036020830152610841818461079b565b90509392505050565b600080fd5b600080fd5b7f4e487b7100000000000000000000000000000000000000000000000000000000600052604160045260246000fd5b61088c82610707565b810181811067ffffffffffffffff821117156108ab576108aa610854565b5b80604052505050565b60006108be61064a565b90506108ca8282610883565b919050565b600067ffffffffffffffff8211156108ea576108e9610854565b5b6108f382610707565b9050602081019050919050565b82818337600083830152505050565b600061092261091d846108cf565b6108b4565b90508281526020810184848401111561093e5761093d61084f565b5b610949848285610900565b509392505050565b600082601f8301126109665761096561084a565b5b813561097684826020860161090f565b91505092915050565b600080600080600060a0868803121561099b5761099a610654565b5b600086013567ffffffffffffffff8111156109b9576109b8610659565b5b6109c588828901610951565b955050602086013567ffffffffffffffff8111156109e6576109e5610659565b5b6109f288828901610951565b945050604086013567ffffffffffffffff811115610a1357610a12610659565b5b610a1f88828901610951565b935050606086013567ffffffffffffffff811115610a4057610a3f610659565b5b610a4c88828901610951565b925050608086013567ffffffffffffffff811115610a6d57610a6c610659565b5b610a7988828901610951565b9150509295509295909350565b60008115159050919050565b610a9b81610a86565b82525050565b6000602082019050610ab66000830184610a92565b92915050565b610ac58161065e565b82525050565b6000602082019050610ae06000830184610abc565b92915050565b7f46696c65206e6f7420666f756e64000000000000000000000000000000000000600082015250565b6000610b1c600e836106cc565b9150610b2782610ae6565b602082019050919050565b60006020820190508181036000830152610b4b81610b0f565b9050919050565b7f4e487b7100000000000000000000000000000000000000000000000000000000600052603260045260246000fd5b7f4e487b7100000000000000000000000000000000000000000000000000000000600052602260045260246000fd5b60006002820490506001821680610bc857607f821691505b602082108103610bdb57610bda610b81565b5b50919050565b60008190508160005260206000209050919050565b60006020601f8301049050919050565b600082821b905092915050565b600060088302610c437fffffffffffffffffffffffffffffffffffffffffffffffffffffffffffffffff82610c06565b610c4d8683610c06565b95508019841693508086168417925050509392505050565b6000819050919050565b6000610c8a610c85610c808461065e565b610c65565b61065e565b9050919050565b6000819050919050565b610ca483610c6f565b610cb8610cb082610c91565b848454610c13565b825550505050565b600090565b610ccd610cc0565b610cd8818484610c9b565b505050565b5b81811015610cfc57610cf1600082610cc5565b600181019050610cde565b5050565b601f821115610d4157610d1281610be1565b610d1b84610bf6565b81016020851015610d2a578190505b610d3e610d3685610bf6565b830182610cdd565b50505b505050565b600082821c905092915050565b6000610d6460001984600802610d46565b1980831691505092915050565b6000610d7d8383610d53565b9150826002028217905092915050565b610d96826106c1565b67ffffffffffffffff811115610daf57610dae610854565b5b610db98254610bb0565b610dc4828285610d00565b600060209050601f831160018114610df75760008415610de5578287015190505b610def8582610d71565b865550610e57565b601f198416610e0586610be1565b60005b82811015610e2d57848901518255600182019150602085019450602081019050610e08565b86831015610e4a5784890151610e46601f891682610d53565b8355505b6001600288020188555050505b50505050505056fea264697066735822122021b42274380e092aea7e73b4c8631800728662ed53aad1b036ab1c479a7c247d64736f6c63430008130033",
  "linkReferences": {},
  "deployedLinkReferences": {}
}